:100000000C94E51C0C940D1D0C940D1D0C940D1DF1
:100010000C940D1D0C940D1D0C940D1D0C940D1DB8
:100020000C940D1D0C940D1D0C941E2F0C94892FF7
:100030000C940D1D0C940D1D0C940D1D0C940D1D98
:100040000C940D1D0C940D1D0C940D1D0C940D1D88
:100050000C940D1D0C940D1D0C940D1D0C945C2E18
:100060000C940D1D0C9432310C9459310C94843144
:100070000C940D1D0C940D1D0C940D1D0C940D1D58
:100080000C940D1D0C940D1D0C940D1D0C940D1D48
:100090000C940D1D0C940D1D0C940D1D0C940D1D38
:1000A0000C940D1D0C940D1D0C940D1DDC23492684
:1000B000492649264926DB1FB02049261525492611
:1000C0004926492649261E213521542167217A21B6
:1000D0008D21AE21BC21CA21D821E621FA210E2290
:1000E00022224926492649264926492649264926C3
:1000F0004926492649264926362240224A225422A8
:100100005E2274228A22A022DE22F4220A232023E5
:10011000362339233C233F2350235C236823742355
:1001200080239723AE23C5234926492649264926FD
:10013000492649264926B622C022CA22D422E423CF
:10014000FC2307241B245624AB203824672449268B
:100150007024842488248B24492692249924A12461
:10016000A724AD24B324C024C824DD24E524FA2424
:10017000002507634236B79BD8A71A39685618AED0
:10018000BAAB558C1D3CB7CC5763BD6DEDFD753ECC
:10019000F6177231BF000000803F08000000BE92D9
:1001A0002449123EABAAAA2ABECDCCCC4C3E0000BC
:1001B0000080BEABAAAAAA3E00000000BF0000005B
:1001C000803F0000000000084178D3BB4387D11373
:1001D0003D190E3CC3BD4282AD2B3E68EC8276BE1B
:1001E000D98FE1A93E4C80EFFFBE01C4FF7F3F00E5
:1001F000000000007F63841800112840586D8BB206
:10020000D3E9F4F7F3EBDFCFBEAC9B8C7E7061518A
:100210004131251B15100C080501000003080E16BE
:100220001E27323E4C5A6A7A8A9BACBCCBD7E0E69A
:10023000EBEFF4F7FBFDFEFEFEFCF9F6F1ECE6E079
:10024000D8D1C8C0B7AEA49B91877D73695F564D66
:10025000443C342D26201B1713100D0C0B0A0A0BDF
:100260000C0E101215191C2024282D32373C414742
:100270004C52575D63696E747A80858B90969BA013
:10028000A5AAAEB2B7BBBEC2C5C8CACDCFD1D2D364
:10029000D4D5D6D6D6D6D6D5D4D3D2D1CFCECCCA35
:1002A000C8C6C4C1BFBCBAB7B4B1AEABA8A4A19E06
:1002B0009A9793908C8985817E7A7773706C696543
:1002C000625F5C595653504D4A484643413F3D3C5E
:1002D0003A383736353433333232323232323333DE
:1002E0003435353638393A3B3D3F40424446484B39
:1002F0004D4F515457595C5F6265686B6E717477EE
:100300007A7D8184878A8D9194979A9DA0A3A6A9CE
:10031000ABAEB1B3B6B8BABCBEC0C2C3C5C6C8C91D
:10032000CACBCCCCCDCDCDCDCDCDCDCDCCCBCBCA0C
:10033000C9C8C7C5C4C3C1BFBEBCBAB8B6B3B1AFE4
:10034000ACAAA7A4A29F9C999693908D8A8783803C
:100350007D7A7773706D6A6763605D5A5755524F47
:100360004C4A474543413F3D3B39373635333231BF
:1003700031302F2F2F2F2E2F2F2F2F30313132337F
:10038000343637383A3C3D3F414345474A4C4E515D
:100390005456595C5F6265686B6E7174787B7E81C0
:1003A00085888B8E9295989B9EA1A4A7AAADB0B28A
:1003B000B5B8BABCBEC1C3C4C6C8C9CBCCCDCECFFC
:1003C000CFD0D0D1D1D1D1D0D0D0CFCECECDCCCA3C
:1003D000C9C8C7C5C3C2C0BEBCBAB8B5B3B0AEAB5E
:1003E000A8A6A3A09D9A9794918D8A8784807D7AF0
:1003F0007673706D696663605D5A5754514E4C490F
:10040000474442403E3C3A38363534323130302F62
:100410002E2E2E2D2D2D2E2E2E2F303131323435E5
:100420003638393B3C3E40424447494B4E50535589
:10043000585B5E6164676A6D7073767A7D808487CD
:100440008B8E9194989B9EA1A4A7AAACAFB2B4B690
:10045000B9BBBDBFC1C3C5C6C7C9CACBCCCDCDCE44
:10046000CECFCFCFCFCFCECECDCDCCCBCAC9C8C6C5
:10047000C5C3C2C0BEBDBBB9B6B4B2AFADABA8A513
:10048000A2A09D9A9794918E8B8885827E7B7874AA
:10049000716E6B6864615E5C595653514E4C4A47AD
:1004A0004543413F3E3C3A393837363534333332B1
:1004B00032323232323233333435353637393A3BF1
:1004C0003D3E4041434547494B4D505255575A5C7C
:1004D0005F6264676A6D707376797C7F8286898CCF
:1004E0008F9295989B9EA1A3A6A9ABAEB0B2B4B6CD
:1004F000B8BABCBEBFC1C2C3C4C5C6C7C8C8C9C9D3
:10050000C9C9C9C9C9C8C8C7C7C6C5C4C3C2C0BF8D
:10051000BEBCBAB9B7B5B3B1AFADAAA8A6A3A19EE8
:100520009C999694918E8B8885827F7C7976737066
:100530006D6A6765625F5D5A585553514E4C4A4823
:1005400047454342403F3E3D3C3B3A3A39393838D3
:100550003838383839393A3A3B3C3D3E3F404243DF
:10056000444648494B4D4F515355575A5C5E616361
:1005700066686B6E707376797C7E8184878A8D90D5
:100580009295989A9D9FA2A4A7A9ABADAFB1B3B421
:10059000B6B8B9BABCBDBEBFC0C0C1C2C2C2C3C377
:1005A000C3C2C2C2C2C1C0C0BFBEBDBCBBBAB8B765
:1005B000B6B4B2B1AFADABA9A7A5A3A19E9C9A98C2
:1005C0009593908E8B888683807D7A787572706D16
:1005D0006A686563615E5C5A58565452504E4C4B83
:1005E00049484746444342424140403F3F3F3F3FE6
:1005F0003F3F3F40404141424344454647484A4BC4
:100600004C4E4F51535557595B5D5F616365686A46
:100610006C6E717376787B7E808385888B8D9092EB
:100620009597999C9EA0A2A4A6A8AAABADAFB0B284
:10063000B3B4B5B6B7B8B9BABABBBBBBBCBCBCBC2B
:10064000BCBBBBBBBAB9B9B8B7B6B5B4B3B2B0AF3F
:10065000AEACABA9A7A5A4A2A09E9C9A9895939195
:100660008F8D8A888683817E7C79777472706D6BBA
:1006700069676562605E5C5B595755545251504ED4
:100680004D4C4B4A494848474746464646464646EB
:10069000464647474849494A4B4C4D4E4F505153A7
:1006A000545657595B5C5E60626466686A6C6E7033
:1006B000727476797B7D7F828486898B8D8F91930E
:1006C0009697999B9D9FA1A2A4A6A7A9AAABACAE01
:1006D000AFB0B0B1B2B3B3B4B4B4B5B5B5B5B5B4E9
:1006E000B4B4B3B3B2B2B1B0AFAEADACABAAA9A71C
:1006F000A6A5A3A2A09E9D9B9997959392908E8C60
:100700008A888583817F7D7B78767472706E6C6A4F
:100710006867656361605E5D5B5A58575655545310
:100720005251504F4F4E4E4D4D4D4D4D4D4D4D4DE7
:100730004E4E4E4F50505152535455565758595A89
:100740005C5D5F6062636567686A6C6D6F7173752D
:1007500077797B7D7F81838587898B8D8E9092943D
:100760009697999A9C9D9FA0A2A3A4A5A6A7A8A985
:10077000AAAAABACACADADADAEAEAEAEAEADADADAE
:10078000ADACACABAAAAA9A8A7A6A5A4A3A2A1A0F8
:100790009F9D9C9A9997969493918F8E8C8A898726
:1007A000858381807E7C7A78767573716F6E6C6AD2
:1007B000696766646362605F5E5D5C5B5A59585846
:1007C00057565655555454545454545454545455DF
:1007D00055565657575859595A5B5C5D5E5F606273
:1007E00063646567686A6B6D6E7071737476777930
:1007F0007B7C7E8082838587888A8C8D8F90929384
:10080000949697989A9B9C9D9E9FA0A1A2A3A3A417
:10081000A4A5A5A6A6A6A7A7A7A7A7A7A6A6A6A676
:10082000A5A5A4A4A3A2A2A1A09F9E9D9C9B9A99CA
:10083000989795949392908F8D8C8B8988868583D9
:1008400082807E7D7B7A7877757472716F6E6D6B46
:100850006A696867666564636261605F5F5E5D5D6B
:100860005C5C5C5B5B5B5B5B5B5B5B5B5B5B5C5CD3
:100870005C5D5D5E5F5F6061616263646566676861
:10088000696A6C6D6E6F707273747677787A7B7D3F
:100890007E7F818284858688898A8C8D8E8F9192D5
:1008A00093949596979899999A9B9C9C9D9D9E9EB2
:1008B0009F9F9FA0A0A0A0A0A0A0A0A09F9F9F9E40
:1008C0009E9E9D9C9C9B9B9A999897979695949396
:1008D0009291908F8D8C8B8A898887858483828082
:1008E0007F7E7C7B7A79777675747372706F6E6DAC
:1008F0006C6B6A6A6968676766656564646363628E
:1009000062626261616161616161626262626363CC
:10091000636464656566676768696A6A6B6C6D6E57
:100920006F707172737475767778797A7B7D7E7F5C
:100930008081828385868788898A8B8C8D8E8F9033
:100940009091929393949595969797979898999953
:100950009999999A9A9A9A9A999999999998989805
:10096000979796969595949493929291908F8E8E58
:100970008D8C8B8A898887868584838281807F7E1F
:100980007D7C7B7A79787776757574737271707007
:100990006F6E6E6D6C6C6B6B6A6A696969686868AA
:1009A00068686867676768686868686869696969C6
:1009B0006A6A6B6B6C6C6D6D6E6F6F707171727358
:1009C00074747576777879797A7B7C7D7E7F808088
:1009D000818283848586868788898A8A8B8C8C8DA0
:1009E0008E8E8F8F909091919192929293939393F8
:1009F00093939394949393939393939392929291CA
:100A0000919190908F8F8E8E8D8D8C8C8B8A8A8910
:100A10008888878685858483838281807F7F7E7DA9
:100A20007C7C7B7A79797877777675757474737353
:100A3000727271717070706F6F6F6E6E6E6E6E6DC0
:100A40006D6D6D6D6D6D6D6E6E6E6E6E6F6F6F6FC9
:100A50007070707171727273737474757576767765
:100A6000787879797A7B7B7C7D7D7E7F7F808081C1
:100A70008282838484858586878788888989898A14
:100A80008A8B8B8B8C8C8C8D8D8D8D8D8E8E8E8E9E
:100A90008E8E8E8E8E8E8E8E8D8D8D8D8D8C8C8C81
:100AA0008C8B8B8B8A8A89898988888787868685BB
:100AB000858484838382828181807F7F7E7E7D7D29
:100AC0007C7C7B7B7A7A797978787877777676769A
:100AD00075757574747474747373737373737373DB
:100AE00073737373737373737373747474747475CF
:100AF00075757576767677777778787979797A7A81
:100B00007B7B7B7C7C7D7D7E7E7F7F7F8080818107
:100B1000828282838384848485858586868686878F
:100B20008787878888888888888889898989898942
:100B30008989898989898888888888888887878732
:100B40008787868686868585858484848383838259
:100B500082828181818080807F7F7F7E7E7E7D7D9D
:100B60007D7C7C7C7C7B7B7B7A7A7A7A7A797979DA
:100B700079797878787878787878787878787878F3
:100B800078787878787878787878787879797979E1
:100B900079797A7A7A7A7A7B7B7B7B7C7C7C7C7DA8
:100BA0007D7D7D7E7E7E7E7F7F7F7F808080808159
:100BB0008181818182828282828383838383838312
:100BC00084848484848484848484848484848484E5
:100BD00084848484848484848484848383838383DA
:100BE00083838382828282828281818181818180EA
:100BF00080808080807F7F7F7F7F7F7E7E7E7E7E05
:100C00007E7E7D7D7D7D7D7D7D7D7D7C7C7C7C7C17
:100C10007C7C7C7C7C7C7C7C7C7C7C7C7C7C7C7C14
:100C20007C7C7C7C7C7C7C7C7C7C7C7C7D7D7D7D00
:100C30007D7D7D7D7D7D7D7E7E7E7E7E7E7E7E7EDB
:100C40007E7E7F7F7F7F7F7F7F7F7F7F7F7F8080B4
:100C50008080808080808080808080808080808094
:100C60008080808080808080808080808080808084
:100C70008080808080808080808080808080808074
:100C800080808080807F7F7F7F7F7F7F7F7F7F7F6F
:100C90007F7F7F7F7F7F7F7F7F7F7F7F7F7F7F7F64
:100CA0007F7F7F7F7F7F7F7F9F71B3D8FDC58A4B1A
:100CB0005727161C3C3870948FAABAD9D0C9BEC128
:100CC0009F9B7452624B254A2F142751488292B839
:100CD0008DB3AFC3BA9EBC6BA16D734F515D4736E8
:100CE00074878AAD93ABC5A3C0BCBFC6B07F8A77FB
:100CF0006463415930673B5F6B6F97A5A4A0A7A2BF
:100D0000B488998676807545615C5853745D6489B2
:100D1000A3B186B6A9A197B2AC985E655C7D424D41
:100D20004167707E667B95829EA6AC99A78A9C6C73
:100D30007D7E724A546E5061615B85709A9694AF65
:100D4000A2B59C8A8C8380706D66655E525D687109
:100D50008A6B9E8A9686BC889A9DA3788664716CFD
:100D600061695D68726B7A788A8CA4988FA58C848F
:100D70008B887E7A696B6960676C6F6F817E9E89F4
:100D8000958E8E9A928C7F8783726D5B7963785C87
:100D9000746E7A7F8F8E919688958E8A85847C7604
:100DA0007570727064676F78778E8393849F929466
:100DB0008B9587807C736F73716970717174808596
:100DC00083868E95918D868D82817C73736F727010
:100DD0006B727B7F77898683968B918D89898380DF
:100DE0007E7A71746E73727178797D7F8789878856
:100DF0008B8A8A8B887C7C7C71716F78756F7C7D27
:100E00007F83868C84878D838687847D7E7C7674C1
:100E100079757377737F818181878A878A888686CF
:100E2000827B7F777A7A727277787D7C7C82838608
:100E300086888688858480807B7A797A7975777BC5
:100E40007B7D80808384858885858483837E7D7B8C
:100E50007978787A79797F7E7F82838285838384AB
:100E600082837F807E7D7B7C7A7D7B7C7D7E7F7EA6
:100E7000818082828282808180807D7E7D7D7C7C7B
:100E80007D7E7E7F7F8080808181828080807F7F69
:100E90007F7E7E7E7E7E7E7E7F7F7F7F8080808065
:100EA0007F7F7F7F7F7F7F7F7F7F7F7F7F7F7F7F52
:100EB0007F498CFD901B1E3B6C6366E2EAE6D28E96
:100EC0006D4D556063D0AC52386B559AC3C296BE17
:100ED000522936486C439BD4D7AE488D58304F5674
:100EE0004CC07600765664A9B8A2BE782C2B3C582C
:100EF0004278C1B8BA76957232387456DF852D7F44
:100F0000784F8BB7BAA4A54C2B374A515AB4BEC1FF
:100F10006B558834326E4AC27A36558A6E7B75605C
:100F200092614849726A5AA1CAA095895DA0594E3A
:100F300088B2AF806374C4745F67B58C7C644556B7
:100F400096478CC984A9993B777F42679E399D77E4
:100F50006A7DA95B6BADD28B7C57578F6464BCE50F
:100F60009F9E3C747F474189B09C887B827A775FE3
:100F700078C7617B7D5052894395D79BAA66737170
:100F8000603C5CA6E3818C997B99604DADDC668604
:100F900074457F536EBFD58BC38D7E54474383D03A
:100FA0007183AF8E5C753983C5537C8B656D7148D9
:100FB0009DCDB2B088985B4B415683CC6EA4B2797C
:100FC00085425EB8B5508C8C725D4577B8CC857B18
:100FD000B3712A4A4269D06A8BC89254994992AC3B
:100FE0005E779D80566A5E98C4C37EAE9841434347
:100FF00058C5A17CB8B977833B78A28850968B728C
:10100000286380A6BB8A8EB75E19524D9D9C78A638
:10101000C99353546985838579A49C44727D86AFB6
:10102000C775B584324E4D4D938B95C5B7692A6D02
:10103000756C7B5D9EB85D198B7B8FAF7BA4AB48D5
:101040001F63347F809BBAC58D6278775B6A9C8210
:10105000C8853891857896908CBE713044587C69EB
:1010600094A9C5B17D2189604D7E6C90AB4D3FA6A2
:1010700078788B96B7954931757D547FCDB9C18B02
:101080003193723B68A46FC2744D9A886B9B9F9991
:10109000A76B3D3B79585FB0AEBEA7424E8E464728
:1010A000837FC18F5C70A8707981C6A2805A466A1E
:1010B0006D4693E1ACB2805C935B376BA4A49A77E6
:1010C000757F866060B292857552388C4A6BC0A479
:1010D000AEB9646C7E3B4D8DA2978784829E674833
:1010E0009BD27C7E6C5A965950A6D099AD74787577
:1010F0004C40718A8D87928C6A7E5F76B678788054
:10110000696D774981BCA89B7F88726941558BCCFA
:101110007C90A181937A54A5B863827F5D795064F5
:10112000A9BF87859881464D4677BF7086B091618B
:10113000804185AC68778B616B6A578EB6B69C9997
:10114000995D5C465BA9B26FABAD7C83436DA093A8
:101150005C898A834B5B7BA1B39288AF7428554E20
:1011600066A5679ABF915E6B5F888F7878999D536B
:101170006A7489ACBC6FB097465F504FA39678BF36
:10118000AE747C6077847E6093A56A317A8194A581
:1011900060A3B25E2C63588F8A7DAFBF8E6C68757A
:1011A0007576917E8B8E488085819AA883B8843F1E
:1011B0005960807D8B90C1AC6D327E72637C688E8D
:1011C000B45A3D977D84B379AFA1543B73626E7E70
:1011D000ADB4BB8840887A546E9C82C07B4D9587A5
:1011E00076958D92AE72464B556E679BA0BAA66EF1
:1011F000448D59538176B8965A63A2777479A9A819
:10120000885B48767D5384D2ACB29D50986A416E1B
:101210009E7AA576678C876869A5969173504590EC
:101220005265B39FB1A454628B43508879A88872E9
:101230007D9F6E758FC88D7D675796614C9AD39E42
:10124000A56C6F8A54406F9B9B8D828373817268FB
:10125000B3857B7C603D804874BCA1A18A7873759E
:101260003E5390C685889382986949A0C46E7F7664
:1012700051915159A8C38EB1877E5E4C4475AB7DA8
:1012800083A08F647B4080B26D78846E736F4E88CC
:10129000B8AEA187916B6245587EBD759CA67F8CC8
:1012A0005C63A3A35F848784625571A3B6847FA324
:1012B0007D36524C6DB46A8EB790629154879C6EA5
:1012C00078917D6069678CAEB572A49953604D606A
:1012D000ABA172B4AB798050749385608D7D773FFC
:1012E0006B8099A87F96AF6B2E5E598E946FA3BBCF
:1012F0008E62626E8080857B949951737F85A0C4D5
:1013000079B28E47615A5E8D8D83BCA9714872781F
:10131000737C6794B2633B88808CA167A7A75B3C12
:101320006D4F808292AEB78B6C7A7A68729582B07C
:10133000834F8B867D908B8CAF7A4956667C738EFB
:1013400097B7A47E40856A5E7E708A9E5E56997CC1
:101350007B878FA8915C4A797F637FB9AAAF884C5D
:101360008E7651709875AD785F9185739495939A48
:101370007353507C6469A09BAC9B585D8B5559821C
:101380007FAB8B69759A767C80B0968067596F7059
:10139000588BC39EA2816890654D729898927B7914
:1013A0007F836B69A38D8379614C88576FAC97A05D
:1013B000A56D71804E5D88968F848281936F58935E
:1013C000B67D7D726595615D99B7919E787A785BFF
:1013D00052758789858C88707E6A79A47B7A7F6F45
:1013E0007278587FA99C927F85756F536287B17E12
:1013F0008B95808C7B6298A36E817E687A606D9AF3
:10140000A985848F805A5D5A79A677849E8A6D7FDC
:1014100059839A727A866D73716788A1A1918F8EB4
:101420006B6A5C69979D779A9A7D815C74928A6CED
:10143000848581616A7C939D8A859A794D66637102
:1014400094728FA3896D746D83877B7C8D8F677396
:10145000798597A0779A8C606D6566918C7CA2984F
:101460007A7D6F7B817F70899274587C818A926FBC
:1014700093996E55706B86857F98A0877573797A7E
:101480007A877F8586657E82808C93829B82606C62
:101490006F7F7E85889F94775C7E79727E75869754
:1014A0006E62897F82967D958E6C607872777F946C
:1014B000979A8364827C6C778B819A7D6A87827C21
:1014C000888588937A67686D77768B8E988F786732
:1014D000846F6D7F7C958871748C7C7B7D908F830D
:1014E00071697B7D6E819F92938A6D877667788B19
:1014F0007E8D7C76848277778D88867A6D6A846E1D
:1015000076928C928C707482696E827E8D827B7EE4
:1015100089797B8598847E767186746E889C8B8CA5
:10152000797A8270697988898480817B807B7890E0
:10153000827E7D756A7E6D7C938B8B837D7B7B6ADF
:101540007184958282858086786F89947A7F7C7198
:101550008471748B94858E827F756F6D7C8C7F8196
:101560008984787D6E7F8D7B7D807A7B7A71818F97
:101570008C89828479766F747F8F7D878A7F82766B
:101580007888887780818077747C888D8180887E58
:101590006D73727B8C7B838D8378827581867B7D76
:1015A000837E787979828A8C7D888575777378884F
:1015B000877D8B897E7F757C838079827F7D717A40
:1015C0007F85888084897B6E777782837C878C8215
:1015D00079797B7F7F807E8384767C7F80868C7E1A
:1015E0008982747877798282808B877C757C7E7D16
:1015F0007E7B83887A73807F81857B868679737B07
:10160000777F80838789817C7E7E7B7D82808780D7
:101610007780807F828181877E76787B7E7D8283E2
:1016200088857F76807C7A7F7D81847A79837F7FCD
:10163000808285827A777E7F7B7F878586807881AE
:101640007D797D827E857E7B81807D828282837DA5
:1016500079797E7B7C838385837A7B807A7A7F7FAE
:1016600084817C7E827E7F7F85827F7C7A7D7D7B8C
:10167000818783837F7C817C797D8282817F7E7F6D
:101680007F7D7D83817F7E7C7A807B7D8482838366
:101690007D7E7F7A7B808181807F7F817D7B81845D
:1016A0007F7F7E7D817C7C818481827E7F7E7C7B4E
:1016B0007E80808080807E7F7D7F827F7F7F7E7E38
:1016C0007E7C7F8281817F7F7E7E7C7D80827F8029
:1016D000817F807F7D81817E7F7F7E7F7D7E818215
:1016E000807F807F7D7D7D7F817F7F81807E7F7D0C
:1016F0007F807E7F7F7E7E7E7E7F81818080807EF8
:101700007E7D7E80807F80807F7F7E7F807F7E7FEA
:101710007F7F7E7E7F80807F7F807F7D7E7E7F80DB
:101720007F7F807F7F7F7F7F7F7F7F7F7F7E7F7FC9
:101730007F7F807F7F7F7F7F7F7F7F7F7F7F7F7FB8
:101740007F7F7F7F7F7F7F7F7F7F7F7F7F7F7F7FA9
:101750007F7F7F7F54A159955F9F9469848F762FF7
:101760003F4A3E7048858EA195BAC9BBCAADAAB1A1
:101770007B8D6A5F453D3845545141597486AD991A
:10178000C699839B9087A5917579725C7E65747A02
:10179000868D9DA093B6AC9A9BB5AEA37E8C6C8AC9
:1017A0005B615356505F5C615F9281929E96A6A2E8
:1017B000AA93A58B74667464584551415D5A704D67
:1017C00056798C92899985A1B6AE8C98916B8B8154
:1017D0007C5F5F7B6A66696494728C83999DA89430
:1017E000BB91AA81926B67536867674A45545B5FF8
:1017F000647164808B8898A3A5BBA7A4ACA9897BDE
:10180000767967604F7A714F688B72698C818375C6
:10181000A7869E9FA3AF8A868A816D76667A5A587C
:101820007654607677798E9F9EA48493989B9D9042
:101830008E79848E806A64595460545D80608C6FA8
:101840007C7F90A498ACABABA598A9948577777F63
:101850005A7373605C5A6C6C7B667F8985A48E8832
:10186000999196919B8D87868E80716C6B5C5C6B79
:101870006A736F747E81868D85879E858EA4849A17
:101880008D858F807E7D6D6D6C636165687B7C7CF2
:10189000827986918C8A909391958C968779767BC4
:1018A00072627360665B69785E6266857E8692931B
:1018B000949C958C85A0947F8A93818C8174746E9E
:1018C0007159777F7875837D808B858B96A1907D0C
:1018D0007A90847F85886E72706A7C6C57657266B8
:1018E0006F7376667C7C8887998C8B92918C7E89CD
:1018F00085756A726F777B7E77727C787D857B7F5A
:101900008F8A99998C9386878C8C817B868D7D704C
:1019100069766B7163796975737A777C8B88859347
:10192000858C8596818D748288847C867B7A767797
:10193000756A7F6E897A8B877F8D82848F928A8188
:101940007F818086847778737A7872706F79757802
:1019500073787D84917D8C8990808885877D858B47
:101960007D788583787D726F707E7C8177847F85BA
:101970007D808A88928A7C8282807E7F8275817C4B
:101980007A757E7E7B797A7B7D78857C8181878084
:101990008485858683827F82857E7B7E7A7B7A7E44
:1019A000787F7F7E7B80847E80817F858580838138
:1019B000817F7F817E7D7D7B7C7F7C7C7D7D7D8149
:1019C0007E7C7C7F7E8083818281808281837F8117
:1019D0007E7F7E7C7C7D7C7D7E7E7E7F7E807E7F2A
:1019E00082818080808080807F807F7E80807F7EFB
:1019F0007E7E7F7E7E7E7E7F7F7F807F807F807FFA
:101A0000807F807F7F7F7F7F7F7F7F7F7F7F7F7FE4
:101A10007F7F4B0A3FA199889197443C72919B9498
:101A20009FB38CA0AF8E777B787AE5B258868073AF
:101A3000895A51796E82845C342D689E717D7D9ABD
:101A4000C5EDBBBAA3A0948E9F5F8E848B847E77F6
:101A500087849177746F796F4F85AE908B7B7772A7
:101A600047509B696A7193A49BA7719094846A61A3
:101A70006376576C6C7B7062506F795C7C879B736C
:101A80006D9C6F8C8790A0AEA24C5D8084736E7D40
:101A9000785C585E71799A96968183828B7A6A7C9B
:101AA0007E7C7A86838F9C8D5E6788838D99BBA2AE
:101AB000578586877C7069918B95A68F8795A382C1
:101AC0005F9184886D72656E7B6B6F728881817A9D
:101AD00064777F828F99957A6C727A7E7378A0B4DE
:101AE000A594887F6D6C7A5541647D85818F76746D
:101AF000706C7D8D886C788F7C837B82777B898FFF
:101B00007F7D82889F89919F978A858FA097726D2C
:101B10007E7B8270608F8880858783766F78A297BE
:101B2000837B83736D628D9C908582798FB2A4874D
:101B300083777B778C92877D75798291955A7289AC
:101B400082817F888F917383828496948262817D63
:101B50007E877579876568777B746F859B718A81CD
:101B60008588989896929F9080798E96876D7674E6
:101B70007679737E737C7B807F827F658278787BC9
:101B80007F7A6D72758887868E9FA5908286848005
:101B90007B7C898B8E89837E756E757B827B778952
:101BA0009196797F88817F848B82819285817B84E5
:101BB00078787A80867E7F837A8392867A80828420
:101BC0007C78828A838581737583868C807B817F14
:101BD00077726D757C7C81857D7E7B7B747B7F8A53
:101BE0009381797C7E7D83828E8B7C7C7A7D7A75F5
:101BF000747772797D868177757B827E7B7D7B773A
:101C00007D7F7A7E7F7E838282777E80807D8384E3
:101C1000878281807F7F7D7F86827E7F7D7C7D78CD
:101C2000777E7F81818488817C7A7E80807E8384B8
:101C30008082817F7E7F7E808482817F7D7E7F82A5
:101C4000827E7E7E7F828280827F7F7E8080807F98
:101C50007F7E7F7F807F7F7E7F7F807F7F7F7F7F94
:101C60007F7F7F7F7F7F7F7F7F5D9AC9ACB3D9F411
:101C7000D88E3A05083B81B6C3A6713A1A19325C70
:101C800089A9B8B4A38B7870788EAECEE6EEE8D68C
:101C9000C0AB9F9EA7B6C5CDCBBCA58A705D545383
:101CA000585D5F5A4D3A251409060B1520292E2D33
:101CB00028221F20283547596A767F83868A909B81
:101CC000AABBCCDAE3E8E9E7E5E4E5E9EDF1F2EF18
:101CD000E9DFD4C8BDB4AEA8A29B918577685A4D00
:101CE000433C37322E28221C16110E0F12161C22CE
:101CF000282D32373D444D5864717D88929BA3ABAB
:101D0000B3BCC5CED6DDE2E5E7E7E6E5E3E2E0DD3C
:101D1000D9D3CCC4BBB2A89F958C837A70665B5133
:101D2000473E36302A25211E1B191717181A1D2267
:101D3000272E343B424A525B646E79838D97A1AA69
:101D4000B3BBC2C9D0D6DBE0E3E5E6E6E5E3E0DD20
:101D5000D9D4CEC8C1B9B0A79E958B81786E655B8A
:101D600052494139322C27231F1C1A19191A1C1EDB
:101D700022262C32383F474F576069737D869099F1
:101D8000A3ABB4BCC3CAD0D6DADEE1E3E4E4E3E15A
:101D9000DFDCD8D3CDC7C0B9B1A8A0978D847B7143
:101DA000685F564E463E37312B26221F1D1B1B1BDC
:101DB0001C1E2125292F343B4249515A626B747EE7
:101DC000879099A2ABB3BAC2C8CED4D8DCDFE1E227
:101DD000E2E2E0DEDBD7D3CEC8C1BAB3ABA39A91BF
:101DE000887F766D645C534B443D36302B2723202F
:101DF0001E1D1D1D1F2124282C31373D444B535BD4
:101E0000636C757E879098A1A9B1B9C0C6CCD1D5B5
:101E1000D9DCDEDFE0E0DEDDDAD6D2CDC8C2BBB48D
:101E2000ADA59D948C837A726960585049423B35C8
:101E3000302B282422201F1F202224272B2F343A26
:101E400040474E555D656E767F889098A1A9B0B7E2
:101E5000BEC4CACFD3D7D9DBDDDDDDDCDAD8D5D13E
:101E6000CCC7C1BBB4ADA69E968E857D746C645CF8
:101E7000544D463F3A342F2B282524222222242554
:101E8000282B2F34393F454B535A626A727A828A23
:101E9000939BA2AAB1B8BEC4C9CED1D5D7D9DADA3C
:101EA000DAD9D7D5D1CDC9C4BEB8B2ABA49C948C75
:101EB000847C746C645D554E48413C37322E2B282F
:101EC0002725252526282B2E31363B40464C535AB4
:101ED00061697179808890989FA7AEB4BAC0C5CA6D
:101EE000CED1D4D6D7D7D7D6D5D3D0CCC8C4BEB907
:101EF000B3ACA59E978F8880787069615A534D471F
:101F0000413C37332F2D2B292828292A2C2F3236D4
:101F10003A3F444A50575E656C747B838A9299A01D
:101F2000A7AEB4BABFC4C8CCCFD1D3D4D4D4D3D144
:101F3000CFCCC9C5C0BBB6B0AAA39C958E867F770F
:101F40007069625B544E48433E393632302E2C2B3A
:101F50002B2C2D2F3235383C41464C52585F656C46
:101F6000747B828991989FA5ABB1B7BCC1C5C8CB22
:101F7000CECFD1D1D1D0CFCDCAC7C3BFBAB5AFA90B
:101F8000A39C968F888179726B655E58514C46424E
:101F90003D39363331302F2F30313335383C4044E2
:101FA000494E53595F656C72797F868C93999EA4D4
:101FB000A9AEB3B7BABDC0C2C3C4C5C4C4C3C1BF50
:101FC000BCB9B5B1ADA9A49F99948E89837D78726F
:101FD0006D68635E5A55524E4B49474544434343EF
:101FE000444547494B4E5154585C6065696E73785F
:101FF0007C81868B8F94989C9FA3A6A9ABADAFB034
:10200000B1B1B2B1B1B0AEACAAA8A5A29F9C989450
:10201000918D8985817D7975716E6A6764615F5C78
:102020005A595756565555565657595A5C5E60621E
:1020300065686B6E7174777B7E8184878A8D9093DF
:102040009597999B9C9E9E9FA0A0A0A09F9E9D9CC3
:102050009B99979593918F8C8A878582807D7B78D9
:10206000767472706E6D6B6A6968676766666667BC
:102070006768696A6B6C6D6F7072747577797B7D58
:102080007E8082848587888A8B8C8D8E8E8F8F90C0
:102090009090908F8F8F8E8D8C8C8B8A8987868580
:1020A000848382807F7E7D7C7B7A7979787777766E
:1020B0007676767676767676767777787879797AB0
:1020C0007A7B7B7C7D7D7E7E7F7F8080808181812D
:1020D00081828282828282818181818181808080ED
:1020E00080807F7F7F7F34BA943258A1D8F5EAB0E0
:1020F0005710011D446170788394AECADFE7DEC7D4
:10210000A57E593D2E2E394B5F72828F99A3ADB7B4
:10211000BDBEB7A78E70513828242B3C536B8396D5
:10212000A5AFB5B8B7B2A99B88715944342E313EDA
:10213000526B859DAFBCC2C2BEB5A89886725D4B7E
:102140003D35363F4F667F98AEBEC7C8C4B9AB9920
:1021500086715E4D3F37363C4A5D758EA5B8C5CA5F
:10216000C8C0B2A08B76625041383539435469817A
:1021700099AEBFC9CBC7BCAB97816B57473B3536D0
:102180003D4A5C728AA1B4C3CBCCC5B8A6917B652D
:1021900051423834363F4E61788FA5B8C5CCCBC498
:1021A000B7A48F78624F40363336404F637991A69B
:1021B000B8C5CCCBC4B7A58F78624F403632363F16
:1021C0004E62788FA4B7C4CBCCC6B9A8937C6652B4
:1021D000423732343C4B5D738AA0B3C2CACCC8BD0F
:1021E000AD99836C57463933333945576B8298AD77
:1021F000BDC8CCCAC2B4A18C75604D3E3532353FE6
:102200004E62778EA3B5C3CBCCC7BCAB98816B575E
:10221000463933333945566A8197ABBBC6CCCAC3FE
:10222000B6A4907A6451413732343D4A5C71879D3F
:10223000B0BFC8CCC9C0B29F8A745F4D3E3633363A
:102240003F4E60768CA0B2C0C9CBC7BEAF9C877131
:102250005D4B3D353337415063788EA2B4C1C9CB55
:10226000C6BCAD9B86705C4B3D36343842516378BA
:102270008EA2B3C0C8CAC6BCAE9B86715D4C3E364A
:102280003438415062778CA0B1BFC7CAC6BDAF9D7C
:102290008974604E40383538404E5F73889CAEBCC0
:1022A000C5C9C7BFB2A18D786452433A35373E4B9A
:1022B0005B6F8398AAB9C3C8C7C1B5A5927E695799
:1022C000473C37373C4756697D91A4B4C0C6C7C365
:1022D000B9AA9885705D4D4039373A435162768A84
:1022E0009DAEBBC4C7C5BDB0A08D796554453C3813
:1022F00039404B5B6D8195A7B5C0C6C6C0B6A795E2
:10230000826E5C4C403A383C465364778B9EAEBB41
:10231000C3C5C3BBAE9E8C786554473D393A414C2A
:102320005B6D8093A5B4BEC4C4BFB5A79683705E31
:102330004F433C3A3D46526375889BABB8C0C4C21C
:10234000BBB0A18F7C69584A403B3B414B58697CEC
:102350008FA0AFBAC1C3BFB7AA9A88766454473F6B
:102360003C3D444F5E6F8294A5B2BCC1C1BCB3A5D5
:102370009583705F50453E3D40485463758799A8EA
:10238000B5BDC1C0B9AFA1907E6C5C4E443E3E422B
:102390004B5868798B9CABB6BEC0BEB7AB9D8C7AF0
:1023A00069594C433F3F454E5B6B7D8E9FADB7BE39
:1023B000BFBCB4A899887766574B433F4147515FEC
:1023C0006F8091A1AEB8BDBEBAB1A59685746455B3
:1023D0004A434042495361718293A2AFB8BDBDB830
:1023E000AFA394837262544A4341444B566473844E
:1023F00095A3AFB8BCBBB6ADA192817161544A44FC
:1024000042454D5765758696A4AFB7BBBAB5AC9F2C
:1024100090807061544A4544474E5967768796A428
:10242000AFB7BAB9B3AA9E8F7F6F60544B46454889
:102430004F5A68778797A4AFB6B9B8B2A99D8E7E78
:102440006F60544C474649515B69788896A4AEB595
:10245000B8B7B1A89C8E7E6F61554C48474A515C15
:1024600069788796A3ADB4B7B6B0A79B8D7E6F6130
:10247000564D49484B525D6A788795A2ACB3B6B5C4
:10248000AFA79B8D7F7062574E4A494C535D6A7867
:102490008795A1ABB2B5B4AFA69B8E7F7163585040
:1024A0004B4A4D535D69778694A0AAB1B4B3AEA6EA
:1024B0009B8E80726459514C4B4E545D6977859365
:1024C0009FA9AFB2B2ADA69B8E8173665B524D4C95
:1024D0004E545D697684919DA7AEB1B1ADA69B8F38
:1024E0008274675C544F4D4F545D687583909CA611
:1024F000ADB0B0ACA59C908375695E55504E5055FB
:102500005D6874818E9AA4ABAFAFACA59C918477C3
:102510006A5F57514F50555D6773808D98A2AAAE80
:10252000AEABA59D9285786C6159535051555D664F
:10253000727E8B97A1A8ACADABA59D92877A6E6396
:102540005A545152565C66717D89959FA6ABACAAD0
:10255000A59D93887C70655C565353565C65707C72
:1025600088939DA5A9ABAAA59E94897D71675E58A5
:102570005454575D656F7A86919AA2A7A9A8A49D25
:10258000948A7F746A625B5857595E666F79848E4D
:10259000979EA3A5A4A19B948A80766D655F5C5BE2
:1025A0005C60676F78828B949A9FA2A19F9A938BAD
:1025B00082787068635F5E5F62686F7780899197E9
:1025C0009C9E9E9C98928B837A726C666261626517
:1025D0006970777F878E94989B9B9A96918B847C69
:1025E000756E69666465676B70777E858B9195986B
:1025F000989794908B847D77716C696767696C712B
:10260000777D83898E92959695938F8A857F79744D
:102610006F6C6A6A6B6E72777C82878C8F929392F2
:10262000918E8A85807A76726F6D6D6D7073777C0E
:102630008085898D8F90908F8C8985807C7874714E
:10264000706F707174777B7F84878A8C8E8E8D8B90
:102650008885817D7976747272727375787B7F82DA
:1026600085888A8B8B8B898784817E7B787675744D
:10267000747577797B7E8184868889898988868448
:10268000817F7C7A7877767677787A7C7E80828490
:1026900086878787868583817F7D7B7A797878793D
:1026A000797B7C7E80818384858585848382817F1C
:1026B0007E7D7B7B7A7A7A7B7C7D7E7F8081828344
:1026C0008383838281807F7E7E7D7C7C7C7C7C7D1D
:1026D0007E7E7F808081818181818180807F7F7EFD
:1026E0007E7E7E7E7E7E7E7E7F7F7F7F7F808080FF
:1026F0007F7F7F7F7F7F7F7F808999758D5592D285
:10270000959C358C733446867BE67E4A8C8CECA592
:102710003D2C8669587656B6A33F8464967EE71CA6
:1027200072A8E8AB9AE9707B4C67988D6E7E7B7ED1
:102730006C806B3A85648D64B5CA5D81AA766461EC
:10274000529C656F3F4E7A7C91ADA772371B7C21FE
:10275000CB9845BC9F6E91AECC31B05C54A263B3B4
:1027600080615788515C11976E11C3AD5D8C700705
:10277000515FB6878D7FB6568A56557A694CC7AB7E
:1027800058A67B4E92767200ACA5B84962558C92E1
:102790002B7D7067ADACBB6B5CA49AB03B49E36129
:1027A000479396A9AD8B7D994F65A07E92E37B867A
:1027B0009472CAA77B9CACAD989770606D82773A93
:1027C0003D9894737FB9824FA8B98242AF6871591E
:1027D0006B8AC1529C9EA396943D45476964627F73
:1027E0009FDB81AA98518576BC657A2C5E4A6C5A2B
:1027F0009C6D7B8669938DA489796E689B9584BB5B
:10280000B6DC8BB35B6E753F716093C155806546D6
:102810008E967F6B907348838A6964B87B7B6CB1BA
:102820005EA47798747B8864725E6C7872817A5942
:10283000C68F9285583E6B846976889AC4AF778A32
:102840003F5866B58FB1698E7E5C4C8E5D618F8A14
:102850007B439E6180777270655A53978B77537371
:102860006B7F74809B6987919A607654686D5D6F09
:1028700089BF979A9A9D705859868B8D73A39261E0
:10288000915C747B6C5FA7838883988B7871887F59
:10289000847B82746C9077545F7174663E6C6A5866
:1028A000768B8B5D7482576397777FA8886F6A9663
:1028B0008A997B9674787F96888F80A6716F6576EB
:1028C0009C536B6F9C8270926B846E746D867B8A56
:1028D000988F9B6C647081A8839B84B393777C678B
:1028E000894D7175796C7173826E645B9587948A7A
:1028F000737985837E9B6F89697988727F769074FE
:102900008684828B607772988B7E9A967A6C8B83A2
:10291000776086597E809E9390767E6A826A9A85D9
:102920008FA07385986EA57B9E938E825789A893FE
:10293000918562846B8B788493A67E7C6296738883
:102940008A929C9B8E8D72857C987F5F807B7C7445
:102950006F8579707B7670966371608A85A08480BC
:102960009162826E7674639C65726F97727D5E5B16
:10297000838A756989878299698483706F7C8B8764
:1029800063667572788784677F7BA87A9482909358
:10299000698476887D6E8C777979766E949189904A
:1029A000638277756C6C7F787D938F897D827F8E53
:1029B000957A6E897F6E859080947884788B817209
:1029C00065708C7F89887E6A727A8C808C787B7146
:1029D0008979677C7F968F8288887A7C747C767A06
:1029E0007B7D8A7F71948766677185748586776938
:1029F0007E75876E898C837A838A7A7076898685DC
:102A0000787A8472817583837479897D84828385E1
:102A10007D80857F83827E7F7E827D70797B7D77DE
:102A20006F7B79757E8283777C80777A847D7F88DF
:102A3000817C7B8481847E847D7E7F8380827F868F
:102A40007C7C7A7E84787C7D83807C817C7F7D7DAC
:102A50007D8080818280827D7B7D808380827F8675
:102A6000817E7F7D817A7E7E7F7D7D7E7F7D7C7B8A
:102A7000817F80807F7F807F7F7F7E807E7F7F7E63
:102A80007F7F8080807F7F7F7E7F7E807F7F808052
:102A90007F7F7F7F7F7E7F7E7F7F7F7F7F7F7F7F48
:102AA0007F7F7F7F7F0000000000000000000000AB
:102AB0000000000000000000000000000000000016
:102AC0000000000000000000000000000000000006
:102AD00000000000000000000000000000000000F6
:102AE00000000000000000000000000000000000E6
:1038700000000000012302230423082380230129E0
:10388000022904290829402680264029802910235E
:1038900020234023802F402F202F102F022F012F75
:1038A00010292029402C7DFD7DFB7DF77DEF7DDFFC
:1038B0007E7F7EBF7EDF7EEF7EFD7EFE7DFE000191
:1038C000040506070D0C0B0A09080A0B0C0D070668
:1038D0000504010008000100000B3912000200007D
:1038E0001D3973002201009039210021010079392E
:1038F0000900030000B1390401030904B5390E01C0
:10390000C13601C026018136018036120100020055
:10391000000040C116860400010001000109027385
:1039200000020100C0320904000002010300000788
:1039300024010001410006240201010006240202C4
:103940000200092403010301020100092403020407
:1039500001010100090504024000000000052501E5
:103960000101090583024000000000052501010353
:1039700009040100020300000009211101000122D5
:103980002100070581034000010705020320000212
:1039900006C9FF0904A15C7508150026FF009540C3
:1039A0000975810295200976910295040976B10284
:1039B000C0040309040E03470065006E004D004477
:1039C000004D000000006C1D2C3411241FBECFEFF1
:1039D000DAE0DEBFCDBF15E0A0E0B1E0ECE3F1E757
:1039E00002C005900D92A232B107D9F716E0A2E20B
:1039F000B5E001C01D92A43BB107E1F719E3CAECA1
:103A0000D9E304C02297FE010E946138C63CD10769
:103A1000C9F70E940A320C949C380C940000A0E074
:103A2000B0E0E5E1FDE10C946D38EC01A880B980CF
:103A3000CA80DB80A114B104C104D10441F484E242
:103A4000A82E89EDB82E8BE5C82E87E0D82EC601AA
:103A5000B5012DE133EF41E050E00E94443827EA00
:103A600031E440E050E00E94D0377B018C01C60178
:103A7000B5012DE133EF41E050E00E944438CA0126
:103A8000B9012CEE34EF4FEF5FEF0E94D0376E0D8F
:103A90007F1D801F911F97FF04C0615070408040C0
:103AA0009048688379838A839B839B01AC015F770D
:103AB000B901CA01CDB7DEB7EAE00C948938AFCFBF
:103AC00080E091E0ACCF609300017093010180939E
:103AD0000201909303010895ECEDF5E088E0DF0129
:103AE0001D928A95E9F71092DE0588EE93E0A0E03A
:103AF000B0E08093DF059093E005A093E105B093DB
:103B0000E2051092E30585E095E09093DD05809352
:103B1000DC0508950F931F93CF93DF9385B99091A0
:103B20002801C92FD0E0FE010E948C2D90912C011C
:103B3000692F70E0FB010E948C2DE0912A010E2F6D
:103B400010E09801F9010E94862D20912601309104
:103B50002701D901129738F031F0AA0FBB1FAA0F25
:103B6000BB1F1197F1F7A801FA010E948C2DD90112
:103B7000129738F031F0AA0FBB1FAA0FBB1F119785
:103B8000F1F790E044E0959587954A95E1F785B97E
:103B9000CE01FC010E94862DCB01FC010E948C2DE0
:103BA000C801FC010E94862DC901029738F031F04E
:103BB000880F991F880F991F0197F1F7C801FC0121
:103BC0000E948C2DC901029738F031F0880F991F9F
:103BD000880F991F0197F1F78CE085B9CE01FC01A0
:103BE0000E94862DCB01FC010E94862DC801FC019C
:103BF0000E94862DC901029738F031F0880F991F75
:103C0000880F991F0197F1F7F8010E948C2DC901C7
:103C1000029738F031F0880F991F880F991F01978C
:103C2000F1F7C901029738F031F0880F991F880F1A
:103C3000991F0197F1F7C901029738F031F0880F09
:103C4000991F880F991F0197F1F7DF91CF911F916D
:103C50000F910895462FA62FB0E0FD01E951FB4FCB
:103C6000908120E430E0291B3109E82FF0E0AA0F11
:103C7000BB1FA552BB4F8D919C9165E070E00E94E7
:103C80000F388091CA059091CB05E80FF91FE60F18
:103C9000F71FEE0FFF1FE35EFC4F80819181280F1D
:103CA000391F3093C7052093C60537FF05C0109212
:103CB000C7051092C60509C02050344034F08FEF7C
:103CC00093E09093C7058093C6058091C6059091B7
:103CD000C70560E170E00E940F388093C8058058E6
:103CE0004295440F407E840F8093C50513DF809179
:103CF000C6059091C70554E0959587955A95E1F7CB
:103D00008093C90507CF6295660F607E61568695E0
:103D100086958695681B6093C505862FFBCECF934D
:103D2000DF93982F742F80912305891709F46CC0B5
:103D300090932305992311F48DE004C0913009F08C
:103D400063C08EE085B92091260130912701C90119
:103D5000029738F031F0880F991F880F991F01974B
:103D6000F1F780912801E82FF0E00E94862DC9012B
:103D7000029738F031F0880F991F880F991F01972B
:103D8000F1F780912C01E82FF0E00E94862DC90107
:103D9000029738F031F0880F991F880F991F01970B
:103DA000F1F7E0912A01AE2FB0E0CD01FC010E94B5
:103DB000862DC901029738F031F0880F991F880FBE
:103DC000991F0197F1F7C901029738F031F0880F78
:103DD000991F880F991F0197F1F7FD010E948C2D03
:103DE000C901029738F031F0880F991F880F991F89
:103DF0000197F1F7C901029738F031F0880F991F48
:103E0000880F991F0197F1F7872F8F7085B98091DF
:103E10002801482F50E0FA010E948C2D80912C013E
:103E2000A82FB0E0FD010E948C2DE0912A01CE2F39
:103E3000D0E0CE01FC010E94862D20912601309118
:103E40002701C901029738F031F0880F991F880FB8
:103E5000991F0197F1F7CE01FC010E948C2DC90139
:103E6000029738F031F0880F991F880F991F01973A
:103E7000F1F772957F7075B9CA01FC010E94862D19
:103E8000CD01FC010E948C2DCE01FC010E94862DEB
:103E9000C901029738F031F0880F991F880F991FD8
:103EA0000197F1F7CE01FC010E948C2DC901029708
:103EB00038F031F0880F991F880F991F0197F1F79B
:103EC000862F8F7085B9CA01FC010E948C2DCD010F
:103ED000FC010E94862DCE01FC010E94862DC901A5
:103EE000029738F031F0880F991F880F991F0197BA
:103EF000F1F7CE01FC010E948C2DC901029738F028
:103F000031F0880F991F880F991F0197F1F762957B
:103F10006F7065B9CA01FC010E94862DCD01FC01BC
:103F20000E94862DCE01FC010E94862DC9010297B8
:103F300038F031F0880F991F880F991F0197F1F71A
:103F4000FE010E948C2DC901029738F031F0880FD4
:103F5000991F880F991F0197F1F7DF91CF9108956D
:103F6000CF92DF92EF92FF920F931F93DF93CF9345
:103F700000D0CDB7DEB7182F042F863008F06AC600
:103F8000862F84568E3038F4E62FF0E0E152FF4F52
:103F9000802F880F8083862F90E0FC013197E336D5
:103FA000F10508F076C6EA5AFF4FEE0FFF1F0590A5
:103FB000F491E02D0994069506950695E02FF0E022
:103FC000DF01A159BE4F80917E018C93DF01A15882
:103FD000BE4F80918E018C93DF01A157BE4F80911F
:103FE0009E018C93DF01A156BE4F8091AE018C9350
:103FF000DF01A155BE4F8091BE018C93DF01A1541A
:10400000BE4F8091CE018C93DF01A153BE4F8091B2
:10401000DE018C93DF01A152BE4F8091EE018C93A3
:10402000DF01A151BE4F8091FE018C93DF01A150B1
:10403000BE4F80910E028C93DF01A15FBD4F809136
:104040001E028C93DF01A15EBD4F80912E028C93E6
:10405000DF01A15DBD4F80913E028C93DF01A15C29
:10406000BD4F80914E028C93DF01A15BBD4F8091CB
:104070005E028C93DF01A15ABD4F80916E028C933A
:10408000DF01A159BD4F80917E028C93DF01A158C1
:10409000BD4F80918E028C93DF01A157BD4F80915F
:1040A0009E028C93DF01A156BD4F8091AE028C938E
:1040B000DF01A155BD4F8091BE028C93DF01A15459
:1040C000BD4F8091CE028C93DF01A153BD4F8091F3
:1040D000DE028C93DF01A152BD4F8091EE028C93E2
:1040E000DF01A151BD4F8091FE028C93DF01A150F1
:1040F000BD4F80910E038C93DF01A15FBC4F809177
:104100001E038C93DF01A15EBC4F80912E038C9324
:10411000DF01A15DBC4F80913E038C93DF01A15C68
:10412000BC4F80914E038C93DF01A15BBC4F80910B
:104130005E038C93DF01A15ABC4F80916E038C9378
:10414000DF01A159BC4F80917E038C93E158FC4F55
:1041500080918E03A9C3000F80E06AE2402F6CC0FB
:10416000C12EDD24F601E759FE4F0083F601E1542C
:10417000FA4F8081089FC00111246FE770E00E9410
:104180000F38262F60932905812F63E00E94EF37B7
:10419000E82E812F0E94EF37F92E80E4F80EF60109
:1041A000EF5AFE4F8081289FC001112461E87FEF04
:1041B0000E940F38462F41588E2D6F2DB0DD94E0B0
:1041C000F90EF601E95AFE4F908180912905989FDA
:1041D000C001112461E87FEF0E940F38462F41583B
:1041E0008E2D6F2D9CDDA4E0FA0EF601E35AFE4FF2
:1041F000908180912905989FC001112461E87FEF8B
:104200000E940F38462F41588E2D6F2D88DDB4E067
:10421000FB0EE3E6F1E0CE0EDF1ED6019C9180910D
:104220002905989FC001112461E87FEF0E940F3893
:10423000462F41588E2D6F2D72DD2BC500937E01C8
:10424000A12FB0E0402F50E004E0559547950A9526
:10425000E1F7FD01E754FA4F40834863A35BBA4F8F
:104260008C91876048234C9319C000938E01E12FF5
:10427000F0E0E35BFA4F40814863802F90E0B4E0C8
:1042800095958795BA95E1F7A3E0880F991FAA95B0
:10429000E1F7876080932C054823408363E0812FFA
:1042A0000E94EF3790556AC300939E01A12FB0E0A2
:1042B000FD01EF5AFE4F0083812F63E00E94EF372C
:1042C000382F812F0E94EF37292F205C38C00093B0
:1042D0009E01A12FB0E0FD01E95AFE4F0083812F1E
:1042E00063E00E94EF37382F812F0E94EF37292F8C
:1042F0002C5B25C00093BE01A12FB0E0FD01E35A65
:10430000FE4F0083812F63E00E94EF37382F812F0B
:104310000E94EF37292F285B12C00093CE01A12FF6
:10432000B0E0FD01ED59FE4F0083812F63E00E9454
:10433000EF37382F812F0E94EF37292F245BA154AC
:10434000BA4F8C91089FC001112461E87FEF0E9451
:104350000F38462F4158832F622F6ECF0093DE0116
:10436000E12FF0E0E75AFA4F40814F60802F8695A9
:1043700086958695806734C00093EE01E12FF0E0CA
:10438000E15AFA4F40814F60802F86958695869539
:1043900080673AC00093FE01E12FF0E0EB59FA4F3D
:1043A00040814F60802F869586958695806740C0B6
:1043B00000930E02E12FF0E0E559FA4F40814F6083
:1043C000802F869586958695806746C000931E024D
:1043D000E12FF0E0E75AFA4F40814067802F8F606D
:1043E00080932C054823408363E0812F0E94EF37A0
:1043F000905DC4C200932E02E12FF0E0E15AFA4F23
:1044000040814067802F8F6080932C054823408334
:1044100063E0812F0E94EF379C5CB0C200933E02A4
:10442000E12FF0E0EB59FA4F40814067802F8F6019
:1044300080932C054823408363E0812F0E94EF374F
:10444000985C9CC200934E02E12FF0E0E559FA4FD0
:1044500040814067802F8F6080932C0548234083E4
:1044600063E0812F0E94EF37945C88C2E12FF0E077
:10447000EF58FA4F4081406C802F880F8F612AC01F
:10448000E12FF0E0E958FA4F4081406C802F880F0F
:104490008F6136C0E12FF0E0E358FA4F4081406C65
:1044A000802F880F8F6142C0E12FF0E0ED57FA4F67
:1044B0004081406C802F880F8F614EC000935E0258
:1044C000E12FF0E0EF58FA4F40814F61802F869541
:1044D0008695806C80932C054823408363E0812F70
:1044E0000E94EF37905B4AC200936E02E12FF0E02A
:1044F000E958FA4F40814F61802F86958695806CF0
:1045000080932C054823408363E0812F0E94EF377E
:104510009C5A34C200937E02E12FF0E0E358FA4F38
:1045200040814F61802F86958695806C80932C0505
:104530004823408363E0812F0E94EF37985A1EC2C0
:1045400000938E02E12FF0E0ED57FA4F40814F616A
:10455000802F86958695806C80932C054823408318
:1045600063E0812F0E94EF37945A08C2E12FF0E0F8
:10457000E757FA4F40814068802F880F8F612AC02B
:10458000E12FF0E0E157FA4F40814068802F880F1B
:104590008F6136C0E12FF0E0EB56FA4F4081406862
:1045A000802F880F8F6142C0E12FF0E0E556FA4F6F
:1045B00040814068802F880F8F614EC000939E021B
:1045C000E12FF0E0E757FA4F40814F61802F869549
:1045D0008695806880932C054823408363E0812F73
:1045E0000E94EF37905ACAC10093AE02E12FF0E06B
:1045F000E157FA4F40814F61802F869586958068FC
:1046000080932C054823408363E0812F0E94EF377D
:104610009C59B4C10093BE02E12FF0E0EB56FA4F73
:1046200040814F61802F86958695806880932C0508
:104630004823408363E0812F0E94EF3798599EC141
:104640000093CE02E12FF0E0E556FA4F40814F6132
:10465000802F86958695806880932C05482340831B
:1046600063E0812F0E94EF37945988C10093DE02E6
:1046700008C00093EE0205C00093FE0202C0009342
:104680000E0300932C0563E0812F0E94EF379059B1
:10469000402F50E073E0559547957A95E1F76EC14C
:1046A00000931E03E12FF0E0EF55FA4F4081406F79
:1046B000802F880F8F6031C000932E03E12FF0E030
:1046C000E955FA4F4081406F802F880F8F603CC0C2
:1046D00000933E03E12FF0E0E355FA4F4081406F35
:1046E000802F880F8F6047C000934E03E12FF0E0CA
:1046F000ED54FA4F4081406F802F880F8F6052C079
:1047000000935E03E12FF0E0EF55FA4F40814F60D8
:10471000802F869586958695806F80932C054823FB
:10472000408363E0812F0E94EF37905827C10093A8
:104730006E03E12FF0E0E955FA4F40814F60802F82
:10474000869586958695806F80932C0548234083B7
:1047500063E0812F0E94EF379C5710C100937E03C6
:10476000E12FF0E0E355FA4F40814F60802F8695AE
:1047700086958695806F80932C054823408363E05F
:10478000812F0E94EF379857F9C000938E03E12FD5
:10479000F0E0ED54FA4F40814F60802F869586956A
:1047A0008695806F80932C054823408363E0812F9A
:1047B0000E94EF379457E2C040913C054760802F3C
:1047C000806882958F7010C040913C054860802FB2
:1047D00090E066E0959587956A95E1F753E0880F3C
:1047E000991F5A95E1F7876080932C0548234093E1
:1047F0003C0580E062E220CDE12FF0E0ED5AFA4F77
:1048000040814760802F82958F70886F27C0E12F8D
:10481000F0E0ED5AFA4F40814863802F90E034E099
:10482000959587953A95E1F723E0880F991F2A958A
:10483000E1F7876C13C0E12FF0E0ED5AFA4F4081A9
:10484000406C802F90E005E0959587950A95E1F7FB
:10485000B6E0880F991FBA95E1F78F6380932C0516
:104860004823408363E0812F0E94EF379C5486C029
:10487000402F407C80914C058F7B482B40934C050A
:1048800080E067E24CDA812F90E0029763E070E00D
:104890000E940F38FB01E852FA4F802F90E0A6E00B
:1048A00095958795AA95E1F78083F3C1402F440F32
:1048B00080E06BE234DA802F90E0F6E09595879502
:1048C000FA95E1F79093480580934705E2C1802F60
:1048D00062E10E94EF3780932E0110922F01D9C11F
:1048E000003428F088EB9EE1ADECB0E404C083E82E
:1048F00090ECA6EDB0E48093340190933501A09341
:104900003601B0933701C5C10F5F00933201C1C1B9
:1049100000933301BEC100934505109246050093F4
:104920003001B7C10695069506950F5F00934001CB
:10493000B0C102950695069503700F5F0093310193
:10494000A8C163E0812F0E94EF37905711C063E048
:10495000812F0E94EF379C560BC063E0812F0E948D
:10496000EF37985605C063E0812F0E94EF379456C9
:10497000402F50E05595479555954795692F5CCC4C
:10498000402F46954695469580914A05807F0FC0F9
:10499000802F90E073E0959587957A95E1F764E034
:1049A000880F991F6A95E1F740914A054F70482B8F
:1049B00040934A0580E060E23FCC402F4695469503
:1049C000469580914B05807F0FC0802F90E053E08B
:1049D000959587955A95E1F744E0880F991F4A9578
:1049E000E1F740914B054F70482B40934B0580E019
:1049F0006CE222CC402F469580914C05807C0FC004
:104A0000802F90E036E0959587953A95E1F7969559
:104A1000982F88279795879540914C054F77482B7D
:104A200040934C0580E067E207CC06950695069515
:104A3000E02FF0E0FA83E983E159FE4F812F6EE029
:104A400040818EDAE981FA81E158FE4F812F6FE0D3
:104A5000408186DAE981FA81E157FE4F812F60E1DA
:104A600040817EDAE981FA81E156FE4F812F61E1D2
:104A7000408176DAE981FA81E155FE4F812F62E1CA
:104A800040816EDAE981FA81E154FE4F812F63E1C2
:104A9000408166DAE981FA81E153FE4F812F64E1BA
:104AA00040815EDAE981FA81E152FE4F812F65E1B2
:104AB000408156DAE981FA81E151FE4F812F66E1AA
:104AC00040814EDAE981FA81E150FE4F812F67E1A2
:104AD000408146DAE981FA81E15FFD4F812F68E18B
:104AE00040813EDAE981FA81E15EFD4F812F69E183
:104AF000408136DAE981FA81E15DFD4F812F6AE17B
:104B000040812EDAE981FA81E15CFD4F812F6BE172
:104B1000408126DAE981FA81E15BFD4F812F6BE26A
:104B200040811EDAE981FA81E15AFD4F812F6CE262
:104B3000408116DAE981FA81E159FD4F812F6DE25A
:104B400040810EDAE981FA81E158FD4F812F6EE252
:104B5000408106DAE981FA81E157FD4F812F6FE24A
:104B60004081FED9E981FA81E156FD4F812F60E352
:104B70004081F6D9E981FA81E155FD4F812F61E34A
:104B80004081EED9E981FA81E154FD4F812F62E342
:104B90004081E6D9E981FA81E153FD4F812F63E33A
:104BA0004081DED9E981FA81E152FD4F812F64E332
:104BB0004081D6D9E981FA81E151FD4F812F65E32A
:104BC0004081CED9E981FA81E150FD4F812F66E322
:104BD0004081C6D9E981FA81E15FFC4F812F67E30B
:104BE0004081BED9E981FA81E15EFC4F812F68E303
:104BF0004081B6D9E981FA81E15DFC4F812F69E3FB
:104C00004081AED9E981FA81E15CFC4F812F6AE3F2
:104C10004081A6D9E981FA81E15BFC4F812F6BE3EA
:104C200040819ED9E981FA81E15AFC4F812F6CE3E2
:104C3000408196D9E981FA81E159FC4F812F6DE3DA
:104C400040818ED989819A8181589C4FDC010C91D9
:104C50006EE396C986508330E0F46A3281F4A12F66
:104C6000B0E0FD01EE0FFF1FE552FB4F40831182C4
:104C7000A453BA4F8C91612F0E942A1E0AC06B3038
:104C800041F4E12FF0E0EE52FA4F4083842F612F80
:104C90003AD80F900F90CF91DF911F910F91FF9015
:104CA000EF90DF90CF900895482F862F453059F42C
:104CB00080914705909148050197A9F4109240050D
:104CC00010923F0510C0463000F5423061F48091EB
:104CD000D805813021F44091DA054F773FC080E05C
:104CE00068E242E040C0842F63E00E94EF37282F43
:104CF00030E0220F331F220F331F842F0E94EF3723
:104D0000922B80E068E2492F2EC0642F66506330FA
:104D100048F48D3238F0E62FF0E0EE52FA4F108270
:104D200080E006C0493031F41092D50580E063E0A0
:104D30000C94831E842F8A50843008F54A3039F051
:104D40004A30E8F04B3039F04C30C9F40EC0409195
:104D5000DA05407B03C04091DA05407E4093DA05D6
:104D6000426080E068E20C948F1E4091DA05407D3D
:104D70004093DA05426080E068E20C948F1E08954B
:104D800080913F0590914005019709F0D2C0809134
:104D9000470590914805019709F0CBC02091430544
:104DA00030914405809141019091420128173907C3
:104DB00064F080912405882341F4109240051092FC
:104DC0003F05109244051092430520913E01309119
:104DD0003F018091450590914605281739074CF110
:104DE00080912405813029F580914001209143056F
:104DF00030914405280F311D30934405209343051D
:104E000010923F0110923E0160E071E080E090E07E
:104E10000E945134462F50E00090260502C055955F
:104E200047950A94E2F74093250580E06AE20E94E4
:104E30008F1E20913E0130913F0180914505909158
:104E40004605281739070CF463C080912405823089
:104E500039F5209140018091430590914405820FDE
:104E6000911D909344058093430510923F01109249
:104E70003E016EE070E00E940F38FC01ED5BFE4FDA
:104E8000408150E00090260502C0559547950A9450
:104E9000E2F74093250580E06AE20E948F1E38C049
:104EA0008823B1F510923F0110923E01A091410577
:104EB000B0914205E0914305F0914405EA0FFB1FD4
:104EC000AA0FBB1FAC5FBE4F8D919C91E80FF91FDD
:104ED000EC50FE4FE4914E2F50E00090490502C087
:104EE000559547950A94E2F780E06AE20E948F1E8A
:104EF000209140018091430590914405820F911DBE
:104F0000909344058093430510923F0110923E0117
:104F100020913E0130913F018091450590914605D9
:104F20002817390734F42F5F3F4F30933F01209308
:104F30003E0108956F927F928F929F92AF92BF929F
:104F4000CF92DF92EF92FF920F931F93782ECB01B7
:104F50009B01220F232F221F330B3195622E2093AA
:104F60002E056FE770E00E94FB3780932D0585E0EA
:104F7000871508F4B0C0E72DF0E0DF01A85CBE4F54
:104F80002C93E05DFA4F808090903201882D90E064
:104F9000692D70E00E94FB37AA2797FDA095BA2FD4
:104FA000BC01CD010E947A355B016C0160912E013C
:104FB00070912F01882777FD8095982F0E947A3570
:104FC00020E030E040E85CE30E9406367B018C0183
:104FD000662D70E060547040882777FD8095982F8B
:104FE0000E947A359B01AC01C801B7010E940636C8
:104FF0009B01AC01C601B5010E947B3420913401B4
:105000003091350140913601509137010E947B3437
:105010007B018C01692D70E0882777FD8095982FA2
:105020000E947A359B01AC01C801B7010E94DF34B0
:105030009B01AC0160E070E080E090E40E94693682
:105040009B01AC01CA01B90120E030E04CED53E412
:105050000E9406366B017C01609338057093390518
:1050600080933A0590933B05882D90E0692D70E080
:105070000E94FB37162F110F110F110F00E0C7010F
:10508000B6010E9447359B01AC01202B312B309398
:10509000370520933605872D63E00E94EF37082FF0
:1050A000872D0E94EF37192F1C55232F330F330BF9
:1050B000612F422F0E948F1E1450809136059091CF
:1050C000370560E071E00E940F38482F802F612F74
:1050D0000E948F1E13C0672D6650633078F4E62F50
:1050E000F0E0DF01A351BB4F2C93DF01A951BB4F6F
:1050F0002C93E453FA4F80810E942A1E1F910F9136
:10510000FF90EF90DF90CF90BF90AF909F908F90E7
:105110007F906F9008954F925F926F927F928F92DF
:105120009F92AF92BF92CF92DF92EF92FF920F9336
:105130001F93DF93CF930F92CDB7DEB7782E642EF7
:1051400045E0841709F065C0209147053091480576
:105150002130310509F061C06C33C0F1A62FB0E0F9
:10516000AF70B070B0934205A0934105662009F47A
:105170004BC08091300180934505109246051092F6
:1051800024053093400520933F051092440510926A
:105190004305AA0FBB1FFD01EC5FFE4FAA5FBE4F88
:1051A0008D919C9120813181821B930B90934201C0
:1051B000809341018FE790E086199109A4E09595CD
:1051C0008795AA95E1F7809349059AC26620E1F098
:1051D0003093400520933F051092440510924305FB
:1051E00080913101809324056294FFE06F2287E073
:1051F0008619809326058BE390E0861B9109909396
:105200004605809345057CC21092400510923F05EB
:1052100077C255E0581708F45DC1662009F448C10B
:105220009090330180EC980E960E472C5524F20195
:10523000E05DFA4F908280903201892D90E0682DD8
:1052400070E00E94FB37AA2797FDA095BA2FBC01FA
:10525000CD010E947A355B016C0160912E01709145
:105260002F01882777FD8095982F0E947A3520E0BE
:1052700030E040E85CE30E9406367B018C01F201DD
:10528000E85CFE4F608170E060547040882777FDD5
:105290008095982F0E947A359B01AC01C801B70117
:1052A0000E9406369B01AC01C601B5010E947B3409
:1052B00020913401309135014091360150913701F0
:1052C0000E947B347B018C01682D70E0882777FD7C
:1052D0008095982F0E947A359B01AC01C801B701D7
:1052E0000E94DF349B01AC0160E070E080E090E45C
:1052F0000E9469369B01AC01CA01B90120E030E08F
:105300004CED53E40E9406366B017C016093380536
:105310007093390580933A0590933B05892D90E071
:10532000682D70E00E94FB37162F110F110F110F1F
:1053300000E0C701B6010E9447359B01AC01202B5C
:10534000312B3093370520933605F201E154FA4FA3
:105350006082872D63E00E94EF37F82E872D0E9430
:10536000EF37E92E692F6C55232F330F330B422F64
:105370000E948F1E2E2D2056809136059091370564
:1053800060E071E00E940F38482F8F2D622F0E943D
:105390008F1E92E07916D9F48091D8058130B9F446
:1053A00080916501689EC001112461E87FEF0E9431
:1053B0000F38462F41588F2D6EE40E948F1E40916A
:1053C000DA05842F80688093DA05426895C1062D3E
:1053D00010E02E2D205CF201EF5AFE4F808190E00C
:1053E000FC01E09FC001E19F900DF09F900D112402
:1053F00061E87FEF0E940F38462F41588F2D622FB2
:105400000E948F1E2E2D2C5BF201E95AFE4F8081E7
:1054100090E0AC01409FC001419F900D509F900DC6
:10542000112461E87FEF0E940F38462F41588F2DDD
:10543000622F0E948F1E2E2D285BF201E35AFE4F31
:10544000808190E0FC01E09FC001E19F900DF09F02
:10545000900D112461E87FEF0E940F38462F4158CC
:105460008F2D622F0E948F1E2E2D245B43E651E06C
:10547000440E551EF201808190E0AC01409FC001B6
:10548000419F900D509F900D112461E87FEF0E9485
:105490000F38462F41588F2D622F0E948F1E50EFDC
:1054A000E52AFF0CFF0CFE2880E068E24F2D26C1A4
:1054B000872D63E00E94EF37282F30E0220F331F43
:1054C000220F331F872D0E94EF37922B80E068E276
:1054D000492F14C1082F0650033090F46D3280F02C
:1054E000A02FB0E0662019F1FD01E453FA4F60836C
:1054F000AE52BA4F6C92862F602F0E942A1E15C0A2
:1055000089E07816E1F4A02FB0E0662081F0AE5279
:10551000BA4F6C92862F6CE00E94EF37E92FF0E0D3
:10552000ED50FB4F80810E948A1D862D04C0AE5233
:10553000BA4F1C9280E0602F0E94831EE1C0972D1D
:105540009A509983933008F0DBC0D0903301E0EC9F
:10555000DE0ED60EC09032018D2D90E06C2D70E0E5
:105560000E94FB37AA2797FDA095BA2FBC01CD0159
:105570000E947A3520E030E040E85CE30E947B3412
:10558000209134013091350140913601509137011D
:105590000E947B347B018C016C2D70E0882777FDA5
:1055A0008095982F0E947A359B01AC01C801B70104
:1055B0000E94DF349B01AC0160E070E080E090E489
:1055C0000E9469369B01AC01CA01B90120E030E0BC
:1055D0004CED53E40E9406368B019C016093380524
:1055E0007093390580933A0590933B058D2D90E09B
:1055F0006C2D70E00E94FB37F62EFF0CFF0CFF0CA9
:10560000EE24C901B8010E9447358B019C010E2987
:105610001F291093370500933605872D90E00A97D0
:1056200063E070E00E940F38E62EF980F7E0FF2279
:105630004CEAF40E012F110F110B8E2D6F2D402F00
:105640000E948F1E5CEFF50E809136059091370514
:1056500060E071E00E940F38482F8E2D6F2D0E9460
:105660008F1E8AE0781659F0781608F449C09BE03E
:105670007916C1F0ECE07E1609F042C026C0809198
:10568000DA0580648093DA0580915301689EC00139
:10569000112461E87FEF0E940F38462F415880E0C7
:1056A00066E425C08091DA0580618093DA058091F7
:1056B0005201689EC001112461E87FEF0E940F38FB
:1056C000462F415880E062E412C08091DA05806282
:1056D0008093DA0580915401689EC001112461E82D
:1056E0007FEF0E940F38462F415880E06AE40E9405
:1056F0008F1E4091DA05426080E068E20E948F1EB2
:105700000F90CF91DF911F910F91FF90EF90DF905D
:10571000CF90BF90AF909F908F907F906F905F9051
:105720004F900895482F282F2058203740F480911B
:105730003D0590913E05892B11F440932F05842F50
:105740008059803160F480913D0590913E05892B10
:1057500031F44F704093270581E090E08AC047FD07
:1057600016C080913D0590913E058130910529F448
:105770004093280582E090E07CC0029741F440937A
:1057800029058091270560912805C5DC50C020318E
:1057900060F480913D0590913E05892B31F44F7066
:1057A000409327058FEF9FEF64C047FD18C080919D
:1057B0003D0590913E052FEF8F3F920729F44093CE
:1057C00028058EEF9FEF55C08E5F9F4F41F44093A9
:1057D0002905809127056091280566DA28C0842F65
:1057E000805B803160F480913D0590913E05892B6E
:1057F00031F44F704093270583E090E03AC047FDB5
:105800001BC080913D0590913E058330910529F4A0
:1058100040932A0584E090E02CC0049769F44093FB
:105820002B058091270560912A050E94B01F1092D8
:105830003E0510923D050895842F805E803160F40E
:1058400080913D0590913E05892B31F44F70409336
:10585000270585E090E00DC047FD26C080913D05FD
:1058600090913E058530910549F440932D0586E0E1
:1058700090E090933E0580933D0508950697A1F42E
:1058800040932E05642F70E07695762F66277795E6
:10589000679580912D05680F711D809127054ADB62
:1058A00010923E0510923D0508956ADA82E696E070
:1058B00060E0DED58CED95E095D4181619069CF4C1
:1058C0008CED95E0B0D48093220587FD09C08091CE
:1058D0003D0590913E05892B19F480912F0522DF1B
:1058E000809122051FCF0895CF93DF938CED95E033
:1058F00060E470E04FEF55D58AE997E29093B006E7
:105900008093AF0680EB9FE19093AA068093A9064F
:105910008BE898E29093A6068093A50684E596E22C
:105920009093A4068093A30684B18F6084B980917C
:105930002A01DBD080912801D8D080912C01D5D0CC
:1059400080E06DE44FE70E94B01F81E06DE44FE717
:105950000E94B01F82E06DE44FE70E94B01F83E019
:105960006DE44FE70E94B01F84E06DE44FE70E94B2
:10597000B01F85E06DE44FE70E94B01F80E069E052
:1059800048E00E94B01F81E069E048E00E94B01F3B
:1059900082E069E048E00E94B01F83E069E048E0EF
:1059A0000E94B01F84E069E048E00E94B01F85E0DB
:1059B00069E048E00E94B01FC0E0D0E0CE018170F5
:1059C0009070BC01660F771F660F771F680F791FF5
:1059D0009E0135952795C901880F991F820F931F46
:1059E000880F991F880F991F680F6B5D8C2F49E7EF
:1059F00092DB2196CA30D10509F768EE73E080E0AA
:105A000090E09AD1C0E0D0E0CE0181709070BC01EE
:105A1000660F771F660F771F680F791F9E013595F8
:105A20002795C901880F991F820F931F880F991F0F
:105A3000880F991F680F6B5D8C2F40E06CDB2196FF
:105A4000CA30D10509F785E004D04CD7DF91CF915A
:105A50000895873118F020E030E045C0E82FF0E0ED
:105A6000E254F74CE4914091FF04E830A0F48091B7
:105A70007E0021E030E00E2E02C0220F331F0A9478
:105A8000E2F7822B80937E0080E880937B00E42BFA
:105A9000E0937C0015C03E2F385020917D0081E0BE
:105AA00090E0032E02C0880F991F0A94E2F7282B7A
:105AB00020937D0080EA80937B00342B30937C0020
:105AC00080917A00806480937A0080917A0086FDCC
:105AD000FCCF3091780020917900922F80E0232F25
:105AE00030E0282B392BC9010895893170F4E4E79F
:105AF000F8E3880FE80FF11D9591E491F0E02FB7DE
:105B0000F8948181892B81832FBF0895E93150F466
:105B1000EE0FED56F24D0994E93120F4EE0FEB5300
:105B2000F24D09940895289A0895299A08952A9A79
:105B300008952B9A08952F9A6AC0589A58C0599A76
:105B400008955A9A08955B9A0895469A66C0479AAE
:105B50006AC05E9A08955F9A6CC02C9A08952D9A37
:105B60004AC02E9A4EC08F9A08958E9A08958D9AA3
:105B700008958C9A0895899A0895889A08955C9A50
:105B800008955D9A0895769A089528980895299819
:105B900008952A9808952B9808952F9838C05898FA
:105BA00026C0599808955A9808955B980895469884
:105BB00034C0479838C05E9808955F983AC02C98D2
:105BC00008952D9818C02E981CC08F9808958E980F
:105BD00008958D9808958C980895899808958898C7
:105BE00008955C9808955D98089576980895E4B5B1
:105BF000EF7DE4BD0895E0918000EF77E0938000B1
:105C00000895E0918000EF7DE09380000895E09199
:105C10008000E77FE09380000895E0919000EF77A7
:105C2000E09390000895E091C000EF77E093C0000A
:105C30000895E091C200E77FE093C20008951DBA85
:105C4000109268001CBC10BE1FBA10927A0010920D
:105C50006E0010926F0010927100109272001092FC
:105C6000C900ECEBF0E0108214B817B81AB81DB8F0
:105C700010BA108215B818B81BB81EB811BA08951A
:105C8000F89480E29EE40197F1F781E08093E000D0
:105C900080E28093D80080E69AEE0197F1F7CFDF9B
:105CA0000C94003FFFCFF894CADF80E69AEE01978C
:105CB000F1F70C940000FFCF8F938FB78F938091F3
:105CC000EC058D5F8D37D0F48093EC058091E8056D
:105CD0008F5F8093E805D8F08091E9058F4F80931E
:105CE000E905A8F08091EA058F4F8093EA0578F0E6
:105CF0008091EB058F4F8093EB0509C08D57809302
:105D0000EC058091E8058E5F8093E80528F7809187
:105D1000E4058C5F8093E40558F08091E5058F4F92
:105D20008093E50528F08091E6058F4F8093E60586
:105D30008F918FBF8F9118959B01AC0114D0FB01FF
:105D40000CC011D06E1B7F0B685E7340D0F32150E6
:105D5000304040405040E851FC4F2115310541058D
:105D6000510579F708950FB6F89466B515B270919C
:105D7000E4058091E5059091E6050FBE10FE05C093
:105D80006F3F19F07C5F8F4F9F4F11240024660FE7
:105D9000001C660F001C70290895F894E1E6F0E0FD
:105DA00020E82083108283E084BD85BDEEE6F0E02C
:105DB00080818160808391E09093800082E0809375
:105DC000810090939000809391008093C00084E0C4
:105DD0008093C1009093C2009093C3001092C400BE
:105DE00086E880937A0020937B0010927E001092C8
:105DF0007D0002D0789408958091D80087FF02C07A
:105E000085FF1BC081E08093D70080EA8093D80093
:105E100082E189BD09B400FEFDCF80E98093D800FE
:105E20001092E0001092B4061092B5061092B606D9
:105E30001092E1008CE08093E20008951F920F928F
:105E40000FB60F9211248F939F938091E1001092CF
:105E5000E100982F83FF0FC01092E90081E080934A
:105E6000EB001092EC0082E38093ED0088E08093D9
:105E7000F0001092B40692FF24C08091B4068823EB
:105E800001F18091B606882391F081508093B60687
:105E9000882369F481E08093E90002C01092F10048
:105EA0008091E80085FDFACF8AE38093E80083E0E3
:105EB0008093E9008091F200882319F08AE38093AF
:105EC000E80090FF0CC080E18093E2001092B406DD
:105ED00081E08093B50680EA8093D80019BC809158
:105EE000B506882379F094FF0DC082E189BD09B41D
:105EF00000FEFDCF80E98093D8008DE08093E20022
:105F00001092B5069F918F910F900FBE0F901F902A
:105F100018951F920F920FB60F9211242F933F9353
:105F20004F935F936F937F938F939F93AF93BF93A1
:105F3000EF93FF931092E9008091E80083FF3EC148
:105F40003091F1009091F1004091F1005091F100F9
:105F50006091F1007091F100A091F100B091F10019
:105F600082EF8093E800963009F044C0E5EDF8E355
:105F700020E0859195918417950711F0359617C00B
:105F8000859195918617970711F0339610C025914A
:105F900035914491CD01AF3FB10519F010F08FEF6D
:105FA00090E0841708F4482FF9015EEF04C02F5FDA
:105FB0002630F9F603C18091E800282F30E0C901AE
:105FC00085709070892BB9F322FDFBC0242F4134DA
:105FD00008F020E4922F04C085918093F100915045
:105FE0009923D1F7421B5093E800442321F7203432
:105FF00011F3E7C0953061F48EEF8093E800809153
:10600000E80080FFFCCF842F80688093E300D9C034
:106010009930F9F4332309F06FC04093B40610921D
:10602000B6068EEF8093E800EFEFF8E391E09093EF
:10603000E90085918093EB00882331F0859180936E
:10604000EC0085918093ED009F5F953081F78EE1A4
:106050004EC0983061F4303809F04EC08091E800AD
:1060600080FFFCCF8091B4068093F1001BC0992380
:10607000E9F48091E80080FFFCCF323811F080E035
:106080000DC06093E9008091EB0090E025E09695CB
:1060900087952A95E1F781701092E9008093F100CD
:1060A0001092F1008EEF8093E8008BC0913011F0D8
:1060B000933011F5323001F541155105E9F4262FE1
:1060C0002F77822F81508630B8F48EEF8093E800CE
:1060D0002093E900933009F471C089E18093EB00CB
:1060E00081E090E002C0880F991F2A95E2F7809323
:1060F000EA001092EA0065C06130710509F052C0F3
:10610000913019F5313A09F059C04A2F5EEF80916C
:10611000E800282F30E0C90185709070892BB9F311
:1061200022FD4FC0942F413408F090E4892F03C022
:106130001092F10081508823D9F7491B5093E80051
:10614000442329F7903419F33CC0993059F5313282
:10615000A9F54050534091F5149781F58091E800DE
:1061600082FFFCCF9091F1002091F1003091F1007D
:106170004091F1008BEF8093E8008EEF8093E80070
:10618000993A39F42534D1F4323CC1F44B36B1F4A8
:1061900077DD9B3899F4253C89F43D3179F440371B
:1061A00069F40BC0993C51F4303441F48EEF809384
:1061B000E8008091E80080FFFCCF75DD81E28093EC
:1061C000EB00FF91EF91BF91AF919F918F917F91E4
:1061D0006F915F914F913F912F910F900FBE0F9054
:1061E0001F9018959091180680911906292F30E07C
:1061F000482F50E0981710F4205C3F4F241B350BBC
:10620000C901089580911806E09119068E1719F4B6
:10621000EFEFFFEF06C0F0E0E65EF94F8081E82F78
:10622000F0E0CF0108959091180680911906981713
:1062300019F42FEF3FEF0FC0209119062F5F203484
:1062400008F020E0E22FF0E0E65EF94F8081209335
:106250001906282F30E0C90108958091ED058823A3
:10626000E1F708951F920F920FB60F9211242F930A
:106270008F939F93EF93FF932091CE0090911806F8
:106280009F5F903408F090E080911906981739F0DC
:10629000E92FF0E0E65EF94F208390931806FF9116
:1062A000EF919F918F912F910F900FBE0F901F90A4
:1062B00018951F920F920FB60F9211248F939F93F0
:1062C000EF93FF939091EE058091EF05981721F4DD
:1062D00088ED8093C9000FC09091EF059F5F9832C1
:1062E00008F090E0E92FF0E0E051FA4F80818093D0
:1062F000CE009093EF05FF91EF919F918F910F90BA
:106300000FBE0F901F9018951F920F920FB60F920D
:1063100011248F93EF93FF931092ED058091000568
:106320008F3F29F080910005E82FF0E0F5DBFF9129
:10633000EF918F910F900FBE0F901F901895FC0159
:106340008091C90083FD05C081E0828320E030E0B8
:1063500026C0809100058F3F49F08091ED0588238C
:1063600029F480910005E82FF0E0D0DB9091EE0554
:106370009F5F983208F090E08091EF058917E1F374
:10638000E92FF0E0E051FA4F608381E08093ED0562
:106390009093EE0588EF8093C90021E030E0C901B9
:1063A00008951F93CF93DF93EB01142F40930005C3
:1063B0004F3F29F0842F99DBE12FF0E0ADDBC0FFE8
:1063C00008C080E1C130D80720F482E08093C80083
:1063D00004C01092C800D695C7952197D093CD00E0
:1063E000C093CC008091C90083FD10C010921806A4
:1063F000109219061092EE051092EF051092ED051D
:1064000086E08093CA0088ED8093C900DF91CF9128
:106410001F910895C2DC68DA48DAFECFCF92DF928E
:10642000EF92FF920F931F93CF93DF937C016B0149
:106430008A01C0E0D0E00FC0D6016D916D01D70197
:10644000ED91FC910190F081E02DC7010995C80FF5
:10645000D91F015010400115110571F7CE01DF91D0
:10646000CF911F910F91FF90EF90DF90CF90089503
:10647000FF920F931F93CF93DF93EC019FB7F89494
:106480008091B406882311F49FBF3DC184E08093BE
:10649000E9002BE68091E80085FD07C082FF03C07C
:1064A0002093E800F7CF9FBF2DC13091F1002091DC
:1064B000F1000091F100F090F1008091E80085FD7D
:1064C00003C08BE68093E8009FBF932F9F70122F2D
:1064D0001F70892F8850873008F09BC0662319F001
:1064E000611709F00FC1822F807F983059F48038EE
:1064F00009F008C11982CF5BDF4FE881F981C154EF
:10650000D0402BC09930E1F4803909F0FBC0FF2066
:1065100049F081E08983CD5BDF4FE881F981C35485
:10652000D0401BC01982CF5BDF4FE881F981C15495
:10653000D040309709F469C0812F602F40E013C02C
:106540009A3099F4803A09F0DDC082E08983CB5B10
:10655000DF4FE881F981C554D040309709F455C028
:10656000812F602F4F2D099550C09B3061F4803BE7
:1065700009F0C8C083E08983C95BDF4FE881F981F6
:10658000C754D040EACF9C3061F4803C09F0BAC0D7
:1065900084E08983C75BDF4FE881F981C954D0402B
:1065A0000DC09D3089F4803D09F0ACC085E0898341
:1065B000C55BDF4FE881F981CB54D040309729F19A
:1065C000812F602F099521C09E3009F09BC0803E2D
:1065D00009F098C086E08983C35BDF4FE881F981C9
:1065E000CD54D040309789F06F2D70E06F77707088
:1065F0007695762F662777956795802F90E08F7731
:106600009070682B792B812F099518830A83FB8260
:1066100059C0943019F5DE01A05CBF4F8C918C33CA
:1066200030F4FE01E80FF11D24838F5F8C93DE01AF
:10663000A05CBF4F8C918C3330F4FE01E80FF11D4C
:1066400004838F5F8C93FE01E05CFF4F80818C336D
:1066500008F058C0C80FD11DFC8243C0892F855057
:10666000833090F5DE01A05CBF4F8C918C3330F409
:10667000FE01E80FF11D24838F5F8C93963060F04C
:10668000DE01A05CBF4F8C918C3330F4FE01E80F2B
:10669000F11D04838F5F8C93973061F4DE01A05C61
:1066A000BF4F8C918C3330F4FE01E80FF11DF48262
:1066B0008F5F8C93FE01E05CFF4F80818A831082A4
:1066C00087E0898381E01FC09F30E1F4FE01E05C38
:1066D000FF4F8081882341F08C33A0F4C80FD11D77
:1066E0002C838F5F80830EC088E08983C15BDF4F7E
:1066F000E881F981CF54D040309709F486CF822FBA
:10670000099583CF80E0DF91CF911F910F91FF908A
:1067100008952FB7F8948091B406882341F082E061
:106720008093E9003BE68091E80085FD03C02FBF20
:1067300090E00FC09091F100992319F43093E80094
:10674000F2CF8091E80085FD03C08BE68093E800DE
:106750002FBF892F08952091B306222349F4D9DF52
:10676000882319F42FEF3FEF04C08093B306282F3E
:1067700030E0C90108952091B306222319F0109248
:10678000B30607C0C6DF882319F42FEF3FEF02C01E
:10679000282F30E0C90108959C018091B306882319
:1067A00049F4C901B6DF882319F420E030E004C0C1
:1067B0008093B30621E030E0C90108958091B406CA
:1067C000882371F09FB7F89482E08093E9002BE66C
:1067D00002C02093E8008091E80085FDFACF9FBFBA
:1067E0001092B3060895FC018091B406882371F1DC
:1067F0002FB7F89481E08093E9009091E400975ED0
:1068000031E08091E80085FD0EC02FBF8091E4004B
:106810008917E1F08091B4068823C1F02FB7F8946E
:106820003093E900EECF6093F1008091E80085FDA0
:1068300006C08AE38093E8001092B60603C084E0A5
:106840008093B6062FBF21E030E004C081E0828350
:1068500020E030E0C9010895EAE5F6E088E0DF01D4
